:100000006CC7000088C7000086C7000084C70000D6
:1000100082C7000080C700007EC700007CC70000C8
:100020007AC7000078C700000C94661274C70000FD
:1000300072C7000070C700006EC700006CC70000E8
:100040006AC7000068C7000066C7000064C70000F8
:1000500062C7000060C700005EC700005CC7000008
:100060005AC7000058C7000056C7000054C7000018
:1000700052C7000050C700004EC700004CC7000028
:100080004AC7000048C7000046C7000044C7000038
:1000900042C7000040C700003E03480075006D00E5
:1000A00062006C0065004800610063006B00650041
:1000B000640020004B0069006E0065007300690059
:1000C0007300200043006F006E0074006F00750025
:1000D00072006500640000002203480075006D0096
:1000E00062006C0065004800610063006B00650001
:1000F00072002E0063006F006D000000040309040D
:1001000009024B00030100A03209040000010301B1
:100110000100092111010001223F000705810308A8
:10012000000A090401000103000000092111010077
:10013000012215000705820320000A0904020001BC
:10014000FF000000070583024000001201100100BB
:10015000000008AF05322000F0010200010631FF67
:100160000974A1537508150026FF009520097581B3
:1001700002C0050C0901A101850119002A3C0215E4
:1001800000263C02950175108100C005010980A17F
:100190000185021981298325017501950381029545
:1001A000058101C005010906A10175019508050732
:1001B00019E029E7150025018102950175088103E1
:1001C0009505750105081901290591029501750329
:1001D0009103950675081500256505071900296521
:1001E0008100C001670C01710C01620C019F0B01C1
:1001F000580C015D0C014E0C01530C01440C0149DB
:100200000C016C0C012B0C01090B01550A01DC0AD5
:1002100001690A018D09016F0901C409017E090103
:10022000740901510901790901B00901970901888F
:100230000901A40B01780A01D20A01730A014B0AD1
:1002400001350C01830901BF0901B50901BA090192
:10025000AB0901A10901A609019C09014709013067
:100260000C01CD0A016E0A01AF0A01AA0A015B095D
:1002700001600901CE09016A0901C9090192090158
:10028000F90B015609016509014C0901C30A014135
:100290000A01910A01A50A000000019A0B01500A07
:1002A00001A00A000000015A0A018C0A00000001A6
:1002B000F50A01FF0A01460A00000001B90A019B84
:1002C0000A01D70A00000000000001820A015F0A4B
:1002D00000000001FA0A01640A01E60A01EB0A00C3
:1002E000000000000000000001870A01C80A019612
:1002F0000A00000000000000000001E10A01B40A49
:1003000001040B01BE0A000000017D0A01F00A0091
:1003100000000000000000000000000000000000DD
:1003200000000000000000000000000000000000CD
:1003300000000001000A01F10901F60901DD0900D0
:10034000000001090B01550A01DC0A01690A0000DD
:10035000000000000000000000000000000000009D
:1003600001050A01280A010F0A010A0A000000011A
:10037000780A01D20A01730A014B0A00000000004A
:1003800000000000000000000000000000011E0A44
:1003900001230A01140A01E70900000001CD0A0146
:1003A0006E0A01AF0A01AA0A000000000000000066
:1003B0000000000000000000000001190A01E2092D
:1003C00001D30901EC0901C30A01410A01910A01A3
:1003D000A50A00000000000001500A01A00A000068
:1003E00000015A0A018C0A00000001F50A012D0AD9
:1003F00001D80900000001B90A019B0A01D70A00CF
:10040000000000000001820A015F0A00000001FAFA
:100410000A01FB0901E60A01EB0A000000000000E6
:1004200000000001870A01C80A01960A00000000C6
:10043000000000000001E10A01B40A01040B01BE42
:100440000A000000017D0A01F00A0000000000001F
:10045000000000000000000000000000000000009C
:10046000000000000000000000000000000000008C
:10047000000000000000000000000000000000007C
:1004800001370A01320A00000000000000000000ED
:10049000000000000000000000000000000000005C
:1004A000000000000000000000000000000000004C
:1004B000000000000000000000000000000000003C
:1004C000000000000000000000000000000000002C
:1004D000000000000000000000000000000000001C
:1004E000000000000000000000000000000000000C
:1004F00000000000000000000000000000000000FC
:1005000000000000000000000000000000000000EB
:1005100000000000000000000000000000000000DB
:1005200000000000000000000000000000000000CB
:1005300000000000000000000000000000000000BB
:1005400000000000000000000000000000000000AB
:10055000000000000000000000000000000000009B
:1005600000000000013C0A00000000000000000044
:10057000000000000000000000000000000000007B
:10058000000000000000000000000000000000006B
:10059000000000000000000000000000000000005B
:1005A000000000000000000000000000000000004B
:1005B000000000000000000001090B01550A01DCE9
:1005C0000A01690A000000000000000000000000AD
:1005D000000000000000000000000000000000001B
:1005E000000000000001780A01D20A01730A014BE1
:1005F0000A000000000000000000000000000000F1
:1006000000000000000000000000000000000000EA
:10061000000001CD0A016E0A01AF0A01AA0A00001A
:1006200000000000000000000000000000000000CA
:1006300000000000000000000000000001C30A01EB
:10064000410A01910A01A50A0000000000000150C2
:100650000A01A00A000000015A0A018C0A000000E9
:1006600001F50A01FF0A01460A00000001B90A016A
:100670009B0A01D70A00000000000001820A015F06
:100680000A00000001FA0A01640A01E60A01EB0A05
:1006900000000000000000000001870A01C80A01F4
:1006A000960A00000000000000000001E10A01B409
:1006B0000A01040B01BE0A000000017D0A01F00AD4
:1006C000000000000000000000000000000000D159
:1006D0000601670C01710C01620C019F0B01580CA3
:1006E000015D0C014E0C01530C01440C01490C013D
:1006F0006C0C012B0C01090B01550A01DC0A016984
:100700000A014A0B012C0B01810B013B0B01310B40
:1007100001220B01360B016D0B01540B01450B013E
:10072000A40B01780A01D20A01730A014B0A019550
:100730000B01400B017C0B01720B01770B01680B65
:10074000015E0B01630B01590B010E0B01900B01B4
:10075000CD0A016E0A01AF0A01AA0A01180B011D98
:100760000B018B0B01270B01860B014F0B01F90BC2
:1007700001A90B01BD0B01130B01C30A01410A01C1
:10078000910A01A50A000000019A0B01500A01A07C
:100790000A000000015A0A018C0A00000001F50A53
:1007A00001FF0A01460A00000001B90A019B0A0183
:1007B000D70A00000000000001820A015F0A000061
:1007C0000001FA0A01640A01E60A01EB0A000000CE
:1007D00000000000000001870A01C80A01960A0013
:1007E000000000000000000001E10A01B40A010459
:1007F0000B01BE0A000000017D0A01F00A000000A2
:1008000000000000000000000000000001670C0173
:10081000710C01620C019F0B01580C015D0C014E23
:100820000C01530C01440C01490C016C0C012B0C04
:1008300001090B01550A01DC0A01690A01E50B01F6
:10084000C70B01210C01D60B01CC0B013A0C01D1D5
:100850000B010D0C01EF0B01E00B01A40B01780A59
:1008600001D20A01730A014B0A01350C01DB0B01AD
:100870001C0C01120C01170C01080C01FE0B0103EA
:100880000C01F40B01B30B01300C01CD0A016E0A0F
:1008900001AF0A01AA0A01AE0B01B80B013F0C011E
:1008A000C20B01260C01EA0B01F90B01A90B01BDDA
:1008B0000B01760C01C30A01410A01910A01A50A44
:1008C000000000019A0B01500A01A00A000000017B
:1008D0005A0A018C0A00000001F50A01FF0A0146CC
:1008E0000A00000001B90A019B0A01D70A000000B2
:1008F00000000001820A015F0A00000001FA0A01FB
:10090000640A01E60A01EB0A000000000000000092
:100910000001870A01C80A01960A000000000000D1
:1009200000000001E10A01B40A01040B01BE0A0043
:100930000000017D0A01F00A000000000000000034
:10094000000000000000000100007B0C0100007EA0
:100950000C010000810C010000840C010000870CD8
:100960000100008A0C0100008D0C010000900C01B8
:100970000000930C010000960C010000990C01008E
:10098000009C0C0100009F0C010000A20C01000063
:10099000A50C010000A80C010000AB0C010000AE8A
:1009A0000C010000B10C010000B40C010000B70CF8
:1009B000010000BA0C010000BD0C010000C00C01D8
:1009C0000000C30C010000C60C010000C90C0100AE
:1009D00000CC0C010000CF0C010000D20C01000083
:1009E000D50C010000D80C010000DB0C010000DE7A
:1009F0000C010000E10C010000E40C010000E70C18
:100A0000010000EA0C010000ED0C010000F00C01F7
:100A10000000F30C010000F60C010000F90C0100CD
:100A200000FC0C010000FF0C010000020D010000A1
:100A3000050D020000080D0200000B0D0300000E62
:100A40000D010000890D0100008C0D0100008F0DCB
:100A5000010000920D010000950D010000980D01AC
:100A600000009B0D0100009E0D010000A10D010082
:100A700000A40D010000A70D010000AA0D01000057
:100A8000AD0D010000B00D010000B30D010000B676
:100A90000D010000B90D020000BC0D010000BF0DEA
:100AA000010000C20D010000C50D040000C80D01C9
:100AB0000000CA0D010000CD0D010000D00D0100A5
:100AC00000D30D040000D60D020000D80D01000077
:100AD000DB0D010000DE0D010000E10D010000E46E
:100AE0000D010000E70D010000EA0D040000ED0D0E
:100AF000040000EF0D010000F10D040000F40D01F1
:100B00000000F60D040000F90D010000FB0D0100CE
:100B100000FE0D010000010E010000040E010000A6
:100B2000070E0100000A0E0100000D0E010000106A
:100B30000E010000130E010000160E010000190E38
:100B40000100001C0E0100001F0E010000220E011A
:100B50000000250E010000280E0100002B0E0100F0
:100B6000002E0E010000310E010000340E010000C5
:100B7000370E0100003A0E0100003D0E010000405A
:100B80000E010000430E010000460E010000490E58
:100B90000100004C0E0100004F0E010000520E013A
:100BA0000000550E010000580E0100005B0E010010
:100BB000005E0E010000610E010000640E010000E5
:100BC000670E0100006A0E0100006D0E010000704A
:100BD0000E010000730E010000760E010000790E78
:100BE0000100007C0E0100007F0E010000820E015A
:100BF0000000850E010000880E0100008B0E010030
:100C0000008E0E010000910E010000940E01000004
:100C1000970E0100009A0E0100009D0E010000A039
:100C20000E010000A30E010000A60E010000A90E97
:100C3000010000AC0E010000AF0E010000B20E0179
:100C40000000B50E010000B80E010000BB0E01004F
:100C500000BE0E010000C10E010000C40E01000024
:100C6000C70E010000CA0E010000CD0E010000D029
:100C70000E010000D30E010000D60E00161C001D50
:100C80001C00091C001A1C00331C00141C00191C39
:100C9000000E1C00361C001C1C000A1C00131C004B
:100CA000121C000F1C00341C00051C00151C001138
:100CB0001C000B1C00171C00071C00061C00181C45
:100CC000000C1C00081C00371C001B1C000D1C0025
:100CD0005B1C00581C00551C005A1C00571C005877
:100CE0001C002E1C00541C00621C00531C005F1CC6
:100CF00000561C00611C005E1C00591C005C1C009E
:100D00005D1C00601C00631C010C0801D106281149
:100D10000D200B1C00181C00101C00051C000F1CD3
:100D200000081C200B1C00041C00061C000E1C00EC
:100D3000081C00071C002C1C200E1C000C1C0011A1
:100D40001C00081C00161C000C1C00161C002C1C8F
:100D500020061C00121C00111C00171C00121C0095
:100D6000181C00151C00081C00071C002C1C000E81
:100D70001C00081C001C1C00051C00121C00041C8C
:100D800000151C00071C00281C00421C00301C0021
:100D9000391C00491C003A1C004F1C004A1C002C46
:100DA0001C002B1C00401C003E1C003C1C004B1C6B
:100DB000004D1C00481C00521C00431C011E030077
:100DC000461C00501C00441C020000411C00291C51
:100DD00000451C004E1C2000005904003F1C003D33
:100DE0001C00471C003B1C002A1C00281C10008013
:100DF0000000511C0400002F1C010000291C0007EA
:100E00001C000D1C00331C00341C000E1C00131CA5
:100E100000191C001A1C000B1C00061C000C1C00F6
:100E2000141C001B1C00051C00091C00171C0011D1
:100E30001C00151C00161C000A1C00081C00121CBB
:100E400000041C000F1C001D1C00381C001C1C0092
:100E5000181C00351C00201C00311C00361C001D15
:100E60001C00331C001B1C00371C00191C001A1C22
:100E700000171C00181C00151C00161C00131C0079
:100E8000141C00111C00121C000F1C00101C000D73
:100E90001C000E1C000B1C000C1C00091C000A1C72
:100EA00000071C00081C00051C002D1C00341C0041
:100EB000041C001C1C00061C00251C00261C002312
:100EC0001C00241C00211C00221C001F1C002E1CC6
:100ED00000271C001E1C00381C0011241FBECFEF71
:100EE000D0E2DEBFCDBF11E0A0E0B1E0E6EFFAE274
:100EF00000E00BBF02C007900D92A438B107D9F7EC
:100F000017E0A4E8B1E001C01D92A63EB107E1F7E9
:100F100060D00C94791574C885FD889882FD8998F5
:100F200080FD8A9881FD8B980895889A899A8A9A7B
:100F30008B9AF2CF8091D7078430E1F483E08093DD
:100F4000E9008091EE0087FF15C08091E80080FFE6
:100F500011C08091E80085FF0DC040E050E060E4E2
:100F600070E08AE191E00E94BB108091E8008E77EA
:100F70008093E800089591E080E80FB6F89480939C
:100F80006100909361000FBE84B7877F84BF88E1C2
:100F90000FB6F89480936000109260000FBE809AA4
:100FA000889A819A899A829A8A9A839A8B9A0E94BD
:100FB0004A1284E189BD89B5826089BD09B400FE09
:100FC000FDCF76D2109220071092F60610921F07DE
:100FD0000895D1DF78948091D707853051F08DE066
:100FE00091E00E947C1480E091E00E947C14A2DFDA
:100FF00011C08091D407882369F095D2882351F0DD
:101000008091D8008F7D8093D8008091E00082602D
:101010008093E0000E942513DECF85E086CF80E23A
:1010200084CF86E082DF8DE091E00E945A14811126
:1010300002C081E27ADF80E091E00E945A148111BF
:1010400002C081E272DF42E361E883E00E94411066
:10105000811102C081E269DF8091E20084608093A7
:10106000E20008958DE091E00E94371380E091E066
:101070000C9437138091180190911901009729F071
:101080000197909319018093180180910B01909121
:101090000C01009729F0019790930C0180930B01AC
:1010A00008950F931F93CF93DF93AC01C901E8011B
:1010B00021E04D30520711F449D204C04050514054
:1010C00019F40ED08883198280E0DF91CF911F91AF
:1010D0000F910895F9018081899A8A9A8B9A1CCF81
:1010E000EF92FF920F931F93CF93DF931F92CDB791
:1010F000DEB7182F998385D59981811110C0E12E13
:10110000F92E00E010E008C0F70181937F010F5F26
:101110001F4F0032110519F07AD58111F5CF80E209
:101120000F90DF91CF911F910F91FF90EF90089555
:10113000FC0189E0DF011D928A95E9F7089529E015
:10114000FC01DB0101900D922A95E1F70895FC0165
:101150008081FB0180839B012E5F3F4F46E050E082
:1011600061E070E0C9010C947215F1CF28E0FC0138
:10117000DB0101900D922A95E1F70895FC0120858D
:10118000E20FF11D62832F5FFC0120870895FC01AF
:101190002081262B208308956095FC012081262341
:1011A00020830895FC0180810895FC01408550E072
:1011B00020E030E073700AC0FC01E20FF31FE2810F
:1011C000F0E06E177F0739F02F5F3F4F2417350788
:1011D0009CF380E0089581E00895109284011092BC
:1011E00085010895CF93DF93209185012436C1F0C6
:1011F00030918401822F90E0830F911D64E670E0AE
:101200000E942C152F5F2093850129E0289FE00183
:10121000299FD00D1124CA57DE4FCE0189DF02C0AD
:10122000C0E0D0E0CE01DF91CF91089520918501FB
:101230002223B9F0E0918401F0E0CF01019664E649
:1012400070E00E942C158093840121502093850129
:1012500089E08E9F90018F9F300D11242A573E4FB9
:1012600002C020E030E0C901089581E0909185013D
:10127000911180E008959091850184E6891B08957D
:10128000292F332723303105B1F04CF421303105BB
:1012900009F44DC02230310509F04EC007C021329B
:1012A000310541F12232310591F146C0EBE4F0E025
:1012B00080E091E045C099278130910569F0823046
:1012C000910589F0892B09F037C0ECEFF0E0E4914B
:1012D000F0E08CEF90E034C0E8EDF0E0E491F0E075
:1012E00088ED90E02DC0E8E9F0E0E491F0E088E9D5
:1012F00090E026C0623000F5E62FF0E0EE0FFF1F11
:10130000E759FE4F80819181E9E0F0E019C0623039
:1013100098F4E62FF0E0DF01AA0FBB1FA359BE4FE0
:101320008D919C91EF58FE4FE081F0E009C0E2E121
:10133000F0E08BE491E004C0E0E0F0E080E090E0D9
:10134000DA018D939C93CF010895E1E2F7E020E06C
:1013500031E050985198529853985498559856980F
:101360005798389839983A983B983C983D983E98C9
:10137000273039F160F42330E1F028F42130A9F06E
:10138000223089F414C02530C1F0C8F414C02B30C9
:1013900001F120F42930C9F0D0F415C02D30E9F066
:1013A000D0F02E30E1F0509A1BC0519A19C0529AD9
:1013B00017C0539A15C0549A13C0559A11C0569A23
:1013C0000FC0579A0DC0389A0BC0399A09C03A9A83
:1013D00007C03B9A05C03C9A03C03D9A01C03E9AA3
:1013E000589A599A5A9A5B9A5C9A5D9A5E9A5F9A51
:1013F000409A419A429A439A449A459A469A27308B
:1014000039F160F42330E1F028F42130A9F02230E2
:1014100089F414C02530C1F0C8F414C02B3001F198
:1014200020F42930C9F0D0F415C02D30E9F0D0F007
:101430002E30E1F058981BC0599819C05A9817C01F
:101440005B9815C05C9813C05D9811C05E980FC082
:101450005F980DC040980BC0419809C0429807C0E2
:10146000439805C0449803C0459801C046988AE651
:101470008A95F1F700C083B18170832790E0A0E0E6
:10148000B0E0199B82601A9B84601B9B88601C9B48
:1014900080611D9B80621E9B80641F9B806881937E
:1014A0009193A193B1932F5F2F3009F052CF0895FC
:1014B0000F931F93CF93DF9399D32098219822986D
:1014C00023982498259826982798289A299A2A9A22
:1014D0002B9A2C9A2D9A2E9A2F9AEFECF6E0859162
:1014E0009491E6ECF7E080839183C4ECD7E08883A5
:1014F000998302EC17E0F80111821082E8ECF7E022
:101500008083918322D369DE8DE597E080D21092AB
:10151000C10788819981F80191838083DF91CF9100
:101520001F910F91089511DFE1E2F7E08191919110
:10153000A191B191892B8A2B8B2B31F487E0ED356A
:10154000F807A1F780E0089581E008958F929F92B7
:10155000BF92CF92DF92EF92FF920F931F93CF93A0
:10156000DF937C018DE597E052D21092C107809104
:10157000C4079091C5079093C3078093C20775DE97
:1015800081110BC053DEEC0188E0D7011D928A95D2
:10159000E9F7209709F0A5C1B6C1D7DE01E217E04F
:1015A000D12C33C0F80140815181628173810C2EAE
:1015B00004C076956795579547950A94D2F78D2D77
:1015C00040FF14C09C2FDED2811115C08D2D9C2FA1
:1015D000E3D2882381F06D2D7C2F8DE597E026D214
:1015E000811109C081E08093C10712C09C2FC0D235
:1015F0008D2D9C2FE2D22196C730D10599F6D39438
:101600000C5F1F4F8FE0D81619F0C0E0D0E0CACFB2
:101610008091C1078111B6CFE5DDEC01009709F497
:10162000B1CF8DE597E071D20EC0C090C207D090C7
:10163000C307CE01B7DDA601682F70E0C8018DD1C8
:101640008DE597E02CD28C01009779F78DE597E036
:101650005CD21AC0D80112968C91823091F4C801E4
:1016600002963FD3FC01208121110BC08181928120
:101670009093C3078093C207C8016AD1DD24D39435
:1016800007C08DE597E00BD28C01009719F7D12C9C
:101690008091C2079091C3072091C8073091C90774
:1016A0008217930719F4D110BCCF1AC09093C907C1
:1016B0008093C8078DE597E028D20EC0D801129616
:1016C0008C911297843029F08D919C9146D2C8015B
:1016D0003FD18DE597E0E3D18C01009779F7E3CF17
:1016E0008DE597E012D28C01C12CD12C1BC0F801E2
:1016F0008281843099F4C801029614D3DC018D9163
:101700009C91C82AD92AF8016381CE0145DDD80110
:1017100014966C91CE0140DDC8011AD18DE597E099
:10172000BED18C010115110511F76C2DCE012FDDF5
:10173000CD2809F076CF8DE597E0E7D18C01B12C6B
:101740004EC0F8018281813009F045C0CE012ADD0A
:10175000982EC8010296DBD26C018DE597E079D115
:10176000823008F438C0892D90E0D80114964C914D
:10177000149713962C9130E0242B20953095282334
:101780003923F6014081242B2817390721F1618183
:1017900072818AEC97E009DD882339F0D8018D91B8
:1017A0009C91DBD1C801D4D016C0F6016181728151
:1017B000CE01E4DCD80113966C91CE01EDDCF8018A
:1017C0006481CE01E9DCD6016C91CE01E0DCC80178
:1017D000BFD0BB24B3948DE597E061D18C01011596
:1017E000110509F0AECF8DE597E08FD175C0B1102E
:1017F0006CC0D80112968C91823009F44AC08330B3
:10180000D1F0813009F065C0C801029680D26C0128
:10181000FC0161817281CE01B1DCD80113966C911B
:10182000CE01BADCF8016481CE01B6DCD6016C9140
:10183000CE01ADDC4EC0C80102965ED26C01F8014B
:10184000808191818AD100E010E01CC014DD8230DB
:1018500008F43FC0C7DCEC01602FC60196D24C01F2
:10186000DC0111966D917C911297CE0187DCF40119
:101870006081CE018CDCB6DCEC01D4016C9187DC9C
:101880000F5F1F4FF601808190E008171907F4F2EF
:1018900020C0C801029625D2DC012C912130C9F468
:1018A00011968D919C9112972091C4073091C50794
:1018B0002817390721F48091C6079091C7079093A4
:1018C000C5078093C407C80143D0F8018081918186
:1018D00044D18DE597E0E3D08C01009709F087CFE4
:1018E00051CE8091C107B701811107C0CE013EDC06
:1018F0006AEC77E0CE0123DC06C0CE0128DC6AEC7E
:1019000077E0CE0132DC88E0DF91CF911F910F911B
:10191000FF90EF90DF90CF90BF909F908F900895B1
:10192000FC01718360831282168215820895FC0186
:1019300020812F3F49F021E030E081818F3F11F479
:1019400020E030E0C90102C080E090E0817008959D
:101950002FEFFC01208321830895BF92CF92DF9265
:10196000EF92FF920F931F93CF93DF938C01B62ECC
:10197000BA01FC01128231812081FFE03F9F200DDE
:10198000112483E0289F600D711D112443E050E075
:101990008AE095E00E94531580910A05811110C0DC
:1019A0002CC06C2F8AE095E0C8D16B2D01965BD1DD
:1019B00090E0C816D90614F46C017E01219606C089
:1019C000C0E0D0E0C12CD12CE12CF12C80910A0593
:1019D00090E0C817D9072CF36E2D8AE095E0ADD1C1
:1019E000B8016E5F7F4FDF91CF911F910F91FF90F4
:1019F000EF90DF90CF90BF906CC1DF91CF911F919E
:101A00000F91FF90EF90DF90CF90BF900895CF930C
:101A1000DF93EC0142E650E06FEF70E00E94721538
:101A2000CE59DF4F1882DF91CF910895FC01EE5916
:101A3000FF4F20812F3058F4322F3F5F308337E043
:101A4000239F800D911D11246BDF81E0089580E0BC
:101A50000895DF92EF92FF920F931F93CF93DF933E
:101A6000EC01F12CE12C8C010E591F4F87E0D82E90
:101A700009C0CE01DF9C800D911D112458DF81111A
:101A8000E394F394F8018081F81698F38E2DDF919A
:101A9000CF911F910F91FF90EF90DF900895BF922B
:101AA000CF92DF92EF92FF920F931F93CF93DF932A
:101AB0008C017C0183E6E80EF11C6801E2E6CE0EA3
:101AC000D11C97E0B92E0EC08F5FF7018083E8012B
:101AD000B89EC00DD11D1124CE0129DF882311F03D
:101AE000209741F4F7018081F6019081891760F316
:101AF000C0E0D0E0CE01DF91CF911F910F91FF9018
:101B0000EF90DF90CF90BF9008950F931F93CF93E6
:101B1000DF93EC018C010D591F4FF801108207DF94
:101B2000811106C0CE01DF91CF911F910F91B7CFE8
:101B3000F8018081F7E08F9FC00DD11D1124CE01E7
:101B4000DF91CF911F910F91089589E6EDE0F5E0C7
:101B5000DF011D928A95E9F708952FE0929F800D8D
:101B60001124E82FF0E0E35FFA4F81E080830895CD
:101B70002FE0929F800D1124E82FF0E0E35FFA4FF1
:101B8000108208952FE0929F800D1124E82FF0E03D
:101B9000E35FFA4F808108952FE0929F800D11241A
:101BA000E82FF0E0EA58FA4F8081883020F48F5F08
:101BB000808380E0089581E008952FE0929F800D5A
:101BC0001124E82FF0E0EA58FA4F1082089590911E
:101BD000E005E091DF05E90F9F5F9093E005F0E0FD
:101BE000EF51FA4F808380E090E008958BE591E01B
:101BF0009093E3078093E2071092DF051092E005CF
:101C0000089581E09091E005911180E00895909110
:101C1000E005992331F12091DF0530E0F901EF5122
:101C2000FA4F80812F5F3F4F33272093DF058C359C
:101C3000A1F4F901EF51FA4F80818E3629F08437F3
:101C400029F0823631F404C08AE003C089E001C083
:101C500088E02F5F3F4F2093DF0591509093E00580
:101C6000089580E00895CF93DF93262F2F70E62FFD
:101C7000E295EF70DC016C91462F4F7062956F70AA
:101C8000CE2FC623D0E0CD58DE4FA22FA423B0E044
:101C9000AD58BE4FC8813C91C30FF0E070E0609535
:101CA0007095E623F72330E050E0409550952423CB
:101CB0003523E22BF32BDC0111962C912F7030E0B1
:101CC000E223F323ED58FE4F80818C0FDF91CF91FB
:101CD000089525E0FC01DB0101900D922A95E1F7C2
:101CE0000895FC016381748143E050E081EE96E049
:101CF000DAD681EE96E00895FC016381748143E0B9
:101D000050E084EE96E0CFD684EE96E00895FC0194
:101D10006381748143E050E087EE96E0C4D687EE9D
:101D200096E00895FC016381748142E050E08AEE00
:101D300096E0B9D68AEE96E008950F931F93CF935D
:101D4000DF93EC0185E0689F8001112469817A812D
:101D5000600F711F8091EC069091ED06681779076E
:101D600069F045E050E08EEE96E09DD689819A813B
:101D7000800F911F9093ED068093EC068EEE96E017
:101D8000DF91CF911F910F910895FC018181928184
:101D9000F3E06F9F800D911D112443E050E0BC01E2
:101DA00083EF96E080D683EF96E008950F931F931C
:101DB000CF93DF93CDB7DEB7AC970FB6F894DEBF05
:101DC0000FBECDBFE8EDF7E08091F100819327E0F1
:101DD000E03EF207C9F78091D8079091D907953076
:101DE00009F484C038F49130B1F170F0933009F007
:101DF0002DC131C0983009F4EFC0993009F4FEC00C
:101E0000963009F023C196C0803821F0823809F05D
:101E10001DC108C08091D3079091D407992389F000
:101E200082600FC08091DC079091DD078770992751
:101E30008093E9008091EB0085FB882780F9109260
:101E4000E9009091E800977F9093E8008093F1007B
:101E50001092F100CCC0882319F0823009F0F6C04E
:101E60008F7121F0823009F0E2C00BC08091DA0757
:101E7000813009F0DCC0933009F080E08093D40712
:101E80002FC08091DA0781112BC08091DC079091DF
:101E9000DD0787709927009709F4C9C08093E9008E
:101EA0002091EB0020FFC3C02091D907233021F4FB
:101EB0008091EB00806212C09091EB009061909352
:101EC000EB0021E030E001C0220F8A95EAF7209371
:101ED000EA001092EA008091EB0088608093EB00AA
:101EE0001092E9008091E800877F84C08111AEC024
:101EF0000091DA071091DB078091E800877F8093DB
:101F0000E800E9D005C08091D707882309F48FC085
:101F10008091E80080FFF7CFC8018F77992700975D
:101F200011F023E001C022E02093D707806880935E
:101F3000E3007DC08058823008F088C08091DA07C5
:101F40009091DB078C3D23E0920779F583E08A834B
:101F50008AE289833FB7F894DE01139680E09EE021
:101F600041E2E92FF0E040935700E49180FF03C085
:101F7000E295EF709F5FEF702E2F205D2A3308F0FF
:101F8000295F2C9311961C92119712968F5F8431C2
:101F900041F73FBF8091E800877F8093E8006AE2C5
:101FA00070E0CE01019631D111C0AE01455D5F4FA9
:101FB0006091DC0765D90097D1F12091E800277F77
:101FC0002093E800BC018BA59CA57ED18091E80000
:101FD0008B778093E8002BC08038C1F58091E800B2
:101FE000877F8093E8008091D5078093F1008091EE
:101FF000E8008E778093E8006ED019C0811126C06A
:102000009091DA07923098F48091E800877F80936E
:10201000E8009093D5075FD08091D507882311F011
:1020200084E001C083E08093D7070E94110880916B
:10203000E80083FF0DC08091EB0080628093EB008D
:102040008091E800877F8093E80002C00BD8EFCF33
:10205000AC960FB6F894DEBF0FBECDBFDF91CF9127
:102060001F910F91089528E030E040E003C04F5FDA
:10207000220F331F28173907D0F3842F8295807FD2
:1020800008958093E900EBEEF0E080818160808329
:10209000EDEEF0E010826093EC0040838091EE0062
:1020A000881F8827881F08951092F40080E080938D
:1020B000E9001092F0001092E8009091ED009D7FF1
:1020C0009093ED009091EB009E7F9093EB008F5FDB
:1020D000873069F708958091D80787FD05C0809102
:1020E000E80080FF0EC012C08091E80082FD05C0AC
:1020F0008091D7078111F8CF08958091E8008B7700
:1021000008C08091D7078111EACF08958091E80037
:102110008E778093E800089585E69091EC0090FF1B
:1021200005C09091E80090FF05C01DC09091E800A7
:1021300092FD19C09091D7079923B9F09091D707D4
:102140009530A9F09091EB0095FD13C09091E100BE
:1021500092FFE3CF9091E1009B7F9093E10081504B
:10216000E1F684E0089580E0089582E0089583E038
:10217000089581E00895AF92BF92CF92DF92EF92DF
:10218000FF920F931F93CF93DF931F92CDB7DEB7CC
:10219000C82E8B017A019983BFDFD82E99818111D6
:1021A00027C0AC2CB92E1CC08091E80085FD11C061
:1021B0008091E8008E778093E800E114F10421F427
:1021C000ABDF882369F010C0F70109958130C1F7B2
:1021D0000DC0F50181915F018093F100015011095B
:1021E0000115110509F704C0D82E02C075E0D72EDD
:1021F0008D2D0F90DF91CF911F910F91FF90EF9058
:10220000DF90CF90BF90AF9008952091DE0730917E
:10221000DF072617370748F06115710539F420915B
:10222000E8002E772093E80001C0B90120E037C014
:102230003091E80033FD42C03091E80032FF06C023
:102240008091E80082FF31C080E008953091D70787
:102250003323C1F13091D707353091F13091E80047
:1022600030FF1DC02091F2003091F300FC01281BCB
:1022700005C081918093F10061507109822F8E0F0A
:102280006115710511F08830A0F321E0883009F064
:1022900020E08091E8008E778093E800CF016115FF
:1022A000710531F62111C4CFCBCF8091D707882398
:1022B00049F08091D707853019F602C081E0089572
:1022C00083E0089582E008952091DE073091DF07D2
:1022D0002617370748F06115710539F42091E80099
:1022E0002E772093E80001C0B90140E03BC0209167
:1022F000E80023FD48C02091E80022FF06C080913D
:10230000E80082FF36C080E008952091D70722239D
:1023100009F43DC02091D7072530B9F12091E8009C
:1023200020FF20C04091F2005091F3009C01481B17
:1023300008C0F9012F5F3F4FE491E093F100615035
:102340007109842F820F6115710511F0883088F3AF
:1023500041E0883009F040E08091E8008E7780937A
:10236000E800C9016115710509F0C1CF4111BFCF66
:10237000C6CF8091D707882351F08091D707853049
:1023800009F0BDCF02C081E0089583E0089582E0A6
:1023900008956115710529F42091E8002B772093A9
:1023A000E8009C0125C08091E80083FD31C0809148
:1023B000D707882399F18091D707853059F180910B
:1023C000E80082FFF0CFF90107C08091F10081930E
:1023D0009F016150710939F09F018091F200909145
:1023E000F300892B91F78091E8008B778093E800C8
:1023F00061157105C1F68091E80080FD0DC08091E6
:10240000D707882359F08091D7078530A1F702C0FC
:1024100081E0089583E0089580E0089582E00895C2
:10242000CF93DF9346D04DD01092D7071092D507A7
:102430001092D4071092D307E8EDF0E08081982F36
:102440009F77908380688083A7EDB0E08C91816056
:102450008C9380818F7D8083A0EEB0E08C918B7F08
:102460008C938C918E7F8C93C1EED0E088818E7F8F
:102470008883A2EEB0E08C9181608C938881877F05
:1024800088838C9188608C93808181608083DF91C8
:10249000CF910895E7EDF0E0808180688083C0DF10
:1024A000E8EDF0E080818061808381E08093D60751
:1024B0000895E8EDF0E080818C7F80831092E20047
:1024C00008951092DA001092E10008951F920F9281
:1024D0000FB60F9211240BB60F921BBE2F933F9392
:1024E0004F935F936F937F938F939F93AF93BF931C
:1024F000EF93FF938091DA0080FF17C08091D8009E
:1025000080FF13C08091DA008E7F8093DA00809183
:10251000D90080FF06C081E08093D7070E940D0894
:1025200004C01092D7070E940F088091E10080FF3D
:102530001CC08091E20080FF18C08091E1008E7F76
:102540008093E1008091E2008E7F8093E200809191
:10255000E20080618093E2008091D80080628093E5
:10256000D80085E08093D7076FD08091E10084FF89
:1025700022C08091E20084FF1EC08091D8008F7D30
:102580008093D8008091E1008F7E8093E10080915C
:10259000E2008F7E8093E2008091E2008160809370
:1025A000E2008091D507882311F084E001C083E028
:1025B0008093D70749D08091E10083FF23C08091A9
:1025C000E20083FF1FC08091E100877F8093E100DC
:1025D00082E08093D7071092D5078091E1008E7F2B
:1025E0008093E1008091E2008E7F8093E2008091F1
:1025F000E20080618093E20057DD42E060E080E02D
:1026000040DD22D08091E10082FF0BC08091E2008A
:1026100082FF07C08091E1008B7F8093E1000E94E0
:102620003A08FF91EF91BF91AF919F918F917F9168
:102630006F915F914F913F912F910F900BBE0F9033
:102640000FBE0F901F9018950895CF938091D707D4
:10265000882359F0C091E900C7701092E900809179
:10266000E80083FDA3DBC093E900CF9108956F924A
:102670007F928F929F92AF92BF92CF92DF92EF9212
:10268000FF920F931F93CF93DF9300D01F92CDB78C
:10269000DEB77C01ADB6BEB68091E80083FFF3C023
:1026A000F701808190E02091DC073091DD07281749
:1026B000390709F0E8C08091D907833009F495C043
:1026C00030F4813071F0823009F0DDC0C4C08A304E
:1026D00009F4AAC08B3009F495C0893009F0D3C041
:1026E0004BC08091D807813A09F0CDC08DB69EB617
:1026F0008091E800877F8093E8001A821982809198
:10270000DA071091DB078B83F70147818DB79EB7FE
:10271000841B91090FB6F8949EBF0FBE8DBFCDB636
:10272000DEB6EFEFCE1ADE0A50E060E070E0C601E0
:10273000D9D1412F41508E010F5F1F4F9601BE012D
:102740006D5F7F4FC7010E945108F70125813681D7
:102750002115310529F0478150E0B601C901B9D1F1
:102760001092E90069817A81F701858196814DDDBA
:102770008091E8008B772FC08091D807813209F0D3
:1027800082C08DB69EB68091E800877F8093E80076
:102790000091DE071091DF077090DA076090DB0789
:1027A0008DB79EB7801B910B0FB6F8949EBF0FBEDE
:1027B0008DBFCDB6DEB6EFEFCE1ADE0AB801C60188
:1027C000E8DD462D41509601672DC7010E946A0839
:1027D0008091E8008E778093E800882D992D0FB6C0
:1027E000F8949EBF0FBE8DBF4EC08091D807813A2E
:1027F00009F049C08091E800877F8093E800F701E5
:10280000808539C08091D8078132E9F58091E80050
:10281000877F8093E8009091DA0781E0911101C0F1
:1028200080E0F70180872EC08091D807813259F56A
:102830008091E800877F8093E8008091DA0790918B
:10284000DB07882736E0969587953A95E1F7F701FB
:102850009287818717C08091D807813AA1F480912F
:10286000E800877F8093E800F7018185928596953F
:102870008795969587958093F1008091E8008E77F3
:102880008093E80028DC0FB6F894BEBE0FBEADBE44
:102890000F900F900F90DF91CF911F910F91FF90AC
:1028A000EF90DF90CF90BF90AF909F908F907F90F0
:1028B0006F9008951F93CF93DF93EC010896FC016E
:1028C00085E0DF011D928A95E9F781E0888784EF32
:1028D00091E09A8789878C81882311F016E001C0E6
:1028E00012E08A819B81BFDB482F412B61EC8981FB
:1028F000DF91CF911F91C5CB4F925F926F927F92E4
:102900008F929F92AF92BF92CF92DF92EF92FF92FF
:102910000F931F93CF93DF9300D01F92CDB7DEB7F5
:102920007C01ADB6BEB68091D707843009F07BC07C
:10293000F70181818093E9008091E80085FF73C0F1
:102940006DB67EB647818DB79EB7841B91090FB6D1
:10295000F8949EBF0FBE8DBFCDB6DEB6EFEFCE1A98
:10296000DE0A1B821A821982460150E060E070E0A4
:10297000C601B8D08E010F5F1F4F960140E0BE0127
:102980006D5F7F4FC7010E945108482EF7012185D6
:102990003285232B31F001E010E023853485232B91
:1029A00011F000E010E0F701C580D680C114D10419
:1029B00089F049815A81B601C4017ED055245394CF
:1029C000009709F4512CF701478150E0B401C6018A
:1029D00080D001C0512C29813A81232BE9F041108C
:1029E00004C0511002C000FF17C0F70121853285D5
:1029F0003487238781818093E9008B8181118093C3
:102A0000F10069817A8140E050E0C401B4DB80913B
:102A1000E8008E778093E800862D972D0FB6F89406
:102A20009EBF0FBE8DBF0FB6F894BEBE0FBEADBE2B
:102A30000F900F900F90DF91CF911F910F91FF900A
:102A4000EF90DF90CF90BF90AF909F908F907F904E
:102A50006F905F904F90089597FB072E16F40094A7
:102A600006D077FD08D00BD007FC05D03EF490953A
:102A700081959F4F0895709561957F4F0895AA1B8A
:102A8000BB1B51E107C0AA1FBB1FA617B70710F059
:102A9000A61BB70B881F991F5A95A9F7809590958B
:102AA000BC01CD010895FB01DC0102C005900D922F
:102AB00041505040D8F70895FB01DC0104C08D91CE
:102AC0000190801921F441505040C8F7881B990BA0
:102AD0000895FB01DC0102C001900D92415050406D
:102AE000D8F70895DC0101C06D9341505040E0F7E4
:062AF0000895F894FFCFE9
:102AF6000102200000FF062000000000000001087F
:102B06000000F7060800000000003031323334358B
:102B1600363738394142434445463031323334350D
:102B260036373839414243444546303132333435FD
:102B360036373839414243444546303132333435ED
:102B4600363738394142434445460000000002000A
:102B5600000000E70D0000000012012B01A4015D3A
:102B6600013F1500010102010202030102020302F4
:042B76000303040051
:00000001FF
