:1000000091C70000ADC70000ABC70000A9C7000042
:10001000A7C70000A5C70000A3C70000A1C7000034
:100020009FC700009DC700000C94F91199C70000FC
:1000300097C7000095C7000093C7000091C7000054
:100040008FC700008DC700008BC7000089C7000064
:1000500087C7000085C7000083C7000081C7000074
:100060007FC700007DC700007BC7000079C7000084
:1000700077C7000075C7000073C7000071C7000094
:100080006FC700006DC700006BC7000069C70000A4
:1000900067C7000065C70000D809DA09DC09DE0976
:1000A000E009E209E409E609E809EA09EC09EE09D0
:1000B000F009F2090D0A0F0A110A130A150A170AA4
:1000C000190A1B0A1D0A1F0A210A230A250A270AE0
:1000D000D60EF80EE70FF80EE70F3D0F5C0FE70F97
:1000E000AE0FC00F3E03480075006D0062006C004B
:1000F00065004800610063006B006500640020003B
:100100004B0069006E0065007300690073002000F9
:1001100043006F006E0074006F0075007200650090
:10012000640000002203480075006D0062006C004E
:1001300065004800610063006B00650072002E00DE
:1001400063006F006D0000000403090409024B0006
:10015000030100A03209040000010301010009218C
:1001600011010001223F000705810308000A09046C
:100170000100010300000009211101000122150006
:100180000705820320000A0904020001FF000000A5
:10019000070583024000001201100100000008AFB3
:1001A00005322000F0010200010631FF0974A1535D
:1001B0007508150026FF00952009758102C0050C01
:1001C0000901A101850119002A3C021500263C0203
:1001D000950175108100C005010980A101850219F2
:1001E000812983250175019503810295058101C04F
:1001F00005010906A10175019508050719E029E720
:100200001500250181029501750881039505750189
:1002100005081901290591029501750391039506B9
:100220007508150025650507190029658100C001BD
:10023000B30C01BD0C01AE0C01EB0B01A40C01A928
:100240000C019A0C019F0C01900C01950C01B80C4B
:1002500001770C01550B01A10A01280B01B50A0118
:10026000D90901BB0901100A01CA0901C009019D90
:100270000901C50901FC0901E30901D40901F00BD9
:1002800001C40A011E0B01BF0A01970A01810C017A
:10029000CF09010B0A01010A01060A01F70901ED64
:1002A0000901F20901E809019309017C0C01190B0C
:1002B00001BA0A01FB0A01F60A01A70901AC09010A
:1002C0001A0A01B60901150A01DE0901450C01A24D
:1002D0000901B109019809010F0B018D0A01DD0A1D
:1002E00001F10A00000001E60B019C0A01EC0A0082
:1002F000000001A60A01D80A00000001410B014BD1
:100300000B01920A00000001050B01E70A01230B13
:1003100000000000000001CE0A01AB0A000000014D
:10032000460B01B00A01320B01370B000000000040
:100330000000000001D30A01140B01E20A000000D2
:10034000000000000000012D0B01000B01500B010B
:100350000A0B00000001C90A013C0B00000000006C
:10036000000000000000000000000000000000008D
:10037000000000000000000000000000000000017C
:100380004C0A013D0A01420A01290A0000000155F8
:100390000B01A10A01280B01B50A000000000000B2
:1003A00000000000000000000000000001510A01F0
:1003B000740A015B0A01560A00000001C40A011E0A
:1003C0000B01BF0A01970A000000000000000000B6
:1003D000000000000000000000016A0A016F0A012D
:1003E000600A01330A00000001190B01BA0A01FB7F
:1003F0000A01F60A000000000000000000000000F2
:1004000000000000000001650A012E0A011F0A0118
:10041000380A010F0B018D0A01DD0A01F10A000003
:1004200000000000019C0A01EC0A00000001A60A7D
:1004300001D80A00000001410B01790A01240A00D9
:10044000000001050B01E70A01230B00000000007A
:100450000001CE0A01AB0A00000001460B01470A69
:1004600001320B01370B000000000000000000010A
:10047000D30A01140B01E20A000000000000000092
:1004800000012D0B01000B01500B010A0B000000B5
:1004900001C90A013C0B0000000000000000000040
:1004A000000000000000000000000000000000004C
:1004B000000000000000000000000000000000003C
:1004C00000000000000000000000000001830A019D
:1004D0007E0A000000000000000000000000000094
:1004E000000000000000000000000000000000000C
:1004F00000000000000000000000000000000000FC
:1005000000000000000000000000000000000000EB
:1005100000000000000000000000000000000000DB
:1005200000000000000000000000000000000000CB
:1005300000000000000000000000000000000000BB
:1005400000000000000000000000000000000000AB
:10055000000000000000000000000000000000009B
:10056000000000000000000000000000000000008B
:10057000000000000000000000000000000000007B
:10058000000000000000000000000000000000006B
:10059000000000000000000000000000000000005B
:1005A000000000000000000000000000000000004B
:1005B00001880A00000000000000000000000000A8
:1005C000000000000000000000000000000000002B
:1005D000000000000000000000000000000000001B
:1005E000000000000000000000000000000000000B
:1005F00000000000000000000000000000000000FB
:100600000000000001550B01A10A01280B01B50AE9
:1006100000000000000000000000000000000000DA
:1006200000000000000000000000000000000000CA
:100630000001C40A011E0B01BF0A01970A00000055
:1006400000000000000000000000000000000000AA
:100650000000000000000000000000000000011980
:100660000B01BA0A01FB0A01F60A000000000000B3
:10067000000000000000000000000000000000007A
:100680000000000000000000010F0B018D0A01DDD9
:100690000A01F10A000000000000019C0A01EC0AB6
:1006A00000000001A60A01D80A00000001410B0168
:1006B0004B0B01920A00000001050B01E70A012320
:1006C0000B00000000000001CE0A01AB0A00000090
:1006D00001460B01B00A01320B01370B000000008C
:1006E000000000000001D30A01140B01E20A00001F
:1006F00000000000000000012D0B01000B01500B59
:10070000010A0B00000001C90A013C0B00000000B7
:10071000000000000000000000000001B30C01BD5B
:100720000C01AE0C01EB0B01A40C01A90C019A0CFD
:10073000019F0C01900C01950C01B80C01770C0184
:10074000550B01A10A01280B01B50A01960B01788E
:100750000B01CD0B01870B017D0B016E0B01820B91
:1007600001B90B01A00B01910B01F00B01C40A01AF
:100770001E0B01BF0A01970A01E10B018C0B01C896
:100780000B01BE0B01C30B01B40B01AA0B01AF0B94
:1007900001A50B015A0B01DC0B01190B01BA0A016F
:1007A000FB0A01F60A01640B01690B01D70B017307
:1007B0000B01D20B019B0B01450C01F50B01090C40
:1007C000015F0B010F0B018D0A01DD0A01F10A0027
:1007D000000001E60B019C0A01EC0A00000001A6E2
:1007E0000A01D80A00000001410B014B0B01920ADB
:1007F00000000001050B01E70A01230B00000000C7
:10080000000001CE0A01AB0A00000001460B01B056
:100810000A01320B01370B0000000000000000004D
:1008200001D30A01140B01E20A00000000000000DD
:100830000000012D0B01000B01500B010A0B000001
:100840000001C90A013C0B0000000000000000008C
:10085000000000000000580801B30C01BD0C01AEFF
:100860000C01EB0B01A40C01A90C019A0C019F0CCB
:1008700001900C01950C01B80C01770C01550B018E
:10088000A10A01280B01B50A01310C01130C016DFD
:100890000C01220C01180C01860C011D0C01590CD5
:1008A000013B0C012C0C01F00B01C40A011E0B01D1
:1008B000BF0A01970A01810C01270C01680C015E37
:1008C0000C01630C01540C014A0C014F0C01400C4B
:1008D00001FF0B017C0C01190B01BA0A01FB0A0193
:1008E000F60A01FA0B01040C018B0C010E0C0172CB
:1008F0000C01360C01450C01F50B01090C01C20C71
:10090000010F0B018D0A01DD0A01F10A000000014F
:10091000E60B019C0A01EC0A00000001A60A01D8BE
:100920000A00000001410B014B0B01920A0000007C
:1009300001050B01E70A01230B0000000000000184
:10094000CE0A01AB0A00000001460B01B00A0132D9
:100950000B01370B00000000000000000001D30A6B
:1009600001140B01E20A0000000000000000000179
:100970002D0B01000B01500B010A0B00000001C9F7
:100980000A013C0B00000000000000000000000015
:10099000000000010000C70C010000CA0C010000AB
:1009A000CD0C010000D00C010000D30C010000D6DA
:1009B0000C010000D90C010000DC0C010000DF0C70
:1009C000010000E20C010000E50C010000E80C0150
:1009D0000000EB0C010000EE0C010000F10C010026
:1009E00000F40C010000F70C010000FA0C010000FB
:1009F000FD0C010000000D010000030D01000006C8
:100A00000D010000090D0100000C0D0100000F0D8B
:100A1000010000120D010000150D010000180D016C
:100A200000001B0D0100001E0D010000210D010042
:100A300000240D010000270D0100002A0D01000017
:100A40002D0D010000300D010000330D01000036B6
:100A50000D010000390D0100003C0D0100003F0DAB
:100A6000010000420D010000450D010000480D018C
:100A700000004B0D0100004E0D010000510D020061
:100A800000540D020000570D0300005A0D01000034
:100A9000D50D010000D80D010000DB0D010000DEC6
:100AA0000D010000E10D010000E40D040000E70D60
:100AB000010000E90D010000EC0D010000EF0D0147
:100AC0000000F20D010000F50D010000F80D01001D
:100AD00000FB0D010000FE0D010000010E010000F1
:100AE000040E020000070E0100000A0E0100000DB6
:100AF0000E010000100E040000130E010000150E80
:100B0000010000180E0100001B0E0100001E0E0463
:100B10000000210E020000230E010000260E01003D
:100B200000290E0100002C0E0100002F0E01000014
:100B3000320E010000350E040000380E0400003AA9
:100B40000E0100003C0E0400003F0E010000410EAB
:100B5000040000440E010000460E010000490E0191
:100B600000004C0E0100004F0E010000520E01006B
:100B700000550E010000580E0100005B0E01000040
:100B80005E0E010000610E010000640E01000067AE
:100B90000E0100006A0E0100006D0E010000700ED3
:100BA000010000730E010000760E010000790E01B5
:100BB00000007C0E0100007F0E010000820E01008B
:100BC00000850E010000880E0100008B0E01000060
:100BD0008E0E010000910E010000940E010000979E
:100BE0000E0100009A0E0100009D0E010000A00EF3
:100BF000010000A30E010000A60E010000A90E01D5
:100C00000000AC0E010000AF0E010000B20E0100AA
:100C100000B50E010000B80E010000BB0E0100007F
:100C2000BE0E010000C10E010000C40E010000C78D
:100C30000E010000CA0E010000CD0E010000D00E12
:100C4000010000D30E010000D60E010000D90E01F4
:100C50000000DC0E010000DF0E010000E20E0100CA
:100C600000E50E010000E80E010000EB0E0100009F
:100C7000EE0E010000F10E010000F40E010000F77D
:100C80000E010000FA0E010000FD0E010000000F31
:100C9000010000030F010000060F010000090F0111
:100CA00000000C0F0100000F0F010000120F0100E7
:100CB00000150F010000180F0100001B0F010000BC
:100CC0001E0F010000210F00161C001D1C00091C36
:100CD000001A1C00331C00141C00191C000E1C0000
:100CE000361C001C1C000A1C00131C00121C000FE8
:100CF0001C00341C00051C00151C00111C000B1CE2
:100D000000171C00071C00061C00181C000C1C000F
:100D1000081C00371C001B1C000D1C005B1C00582D
:100D20001C00551C005A1C00571C00581C002E1C8F
:100D300000541C00621C00531C005F1C00561C0069
:100D4000611C005E1C00591C005C1C005D1C0060E6
:100D50001C00631C015808011B07285D0D200B1C9B
:100D600000181C00101C00051C000F1C00081C2093
:100D70000B1C00041C00061C000E1C00081C0007B5
:100D80001C002C1C200E1C000C1C00111C00081C3C
:100D900000161C000C1C00161C002C1C20061C003D
:100DA000121C00111C00171C00121C00181C00153E
:100DB0001C00081C00071C002C1C000E1C00081C3A
:100DC000001C1C00051C00121C00041C00151C004B
:100DD000071C00281C00421C00301C00391C004964
:100DE0001C003A1C004F1C0800002C1C002B1C008F
:100DF000401C003E1C003C1C004B1C004D1C0048CD
:100E00001C00521C00431C016A0300461C00501CBD
:100E100000441C020000411C00291C00451C004E1F
:100E20001C200000A504003F1C003D1C00471C00C6
:100E30003B1C002A1C00281C1000400000511C0410
:100E400000002F1C0100004C1C00071C000D1C00A2
:100E5000331C00341C000E1C00131C00191C001A4B
:100E60001C000B1C00061C000C1C00141C001B1C8E
:100E700000051C00091C00171C00111C00151C009B
:100E8000161C000A1C00081C00121C00041C000F89
:100E90001C001D1C00381C001C1C00181C00351CEC
:100EA00000201C00311C00361C001D1C00331C00DF
:100EB0001B1C00371C00191C001A1C00171C0018F2
:100EC0001C00151C00161C00131C00141C00111C17
:100ED00000121C000F1C00101C000D1C000E1C003A
:100EE0000B1C000C1C00091C000A1C00071C00083D
:100EF0001C00051C002D1C00341C00041C001C1CC4
:100F000000061C00251C00261C00231C00241C00BD
:100F1000211C00221C001F1C002E1C00271C001E70
:100F20001C00381C11241FBECFEFD0E2DEBFCDBFA6
:100F300011E0A0E0B1E0EAE2FAE200E00BBF02C09B
:100F400007900D92AA37B107D9F727E0AAE7B1E0D9
:100F500001C01D92AC3DB207E1F763D00C941315AC
:100F60004FC885FD889882FD899880FD8A9881FD0B
:100F70008B980895889A899A8A9A8B9AF2CF809151
:100F8000CD078430E1F483E08093E9008091EE00A6
:100F900087FF15C08091E80080FF11C08091E800B4
:100FA00085FF0DC040E050E060E470E080E091E03B
:100FB0000E947B108091E8008E778093E80008956E
:100FC00091E080E80FB6F8948093610090936100FF
:100FD0000FBE84B7877F84BF0FB6F894A895809121
:100FE0006000886180936000109260000FBE809A5C
:100FF000889A819A899A829A8A9A839A8B9A0E946D
:10100000DD1184E189BD89B5826089BD09B400FE26
:10101000FDCF41D2109216071092EC0610921507E0
:101020000895CEDF78948091CD07853051F08EE41D
:1010300091E00E940D1481E491E00E940D149FDF65
:1010400011C08091CA07882369F060D2882351F0CB
:101050008091D8008F7D8093D8008091E0008260DD
:101060008093E0000E94B712DECF85E083CF80E25C
:1010700081CF86E07FDF8EE491E00E94EB13811147
:1010800002C081E277DF81E491E00E94EB138111DD
:1010900002C081E26FDF42E361E883E0B2D78111F1
:1010A00002C081E267DF8091E20084608093E20009
:1010B00008958EE491E00E94C91281E491E00C94BD
:1010C000C9128091590190915A01009729F0019716
:1010D00090935A018093590180914C0190914D0158
:1010E000009729F0019790934D0180934C0108954A
:1010F0000F931F93CF93DF93AC01C901E80121E067
:101100004E34520711F415D204C04154514021F419
:101110000FD090E09983888380E0DF91CF911F9179
:101120000F910895F9018081899A8A9A8B9A19CF33
:10113000EF92FF920F931F93CF93DF931F92CDB740
:10114000DEB7182F998338D5998181110EC0E12E11
:10115000F92E8701005E1F4F35D5882331F0F70146
:1011600081937F01E017F107B9F780E20F90DF91DB
:10117000CF911F910F91FF90EF90089529E0FC010E
:1011800011922A95E9F70895FC0199E0DB0101909D
:101190000D929A95E1F70895FB01DC018C91808313
:1011A00046E050E061E070E0CF0102960C940C152F
:1011B000F3CFFC0198E0DB0101900D929A95E1F7E5
:1011C0000895FC019085DF01A90FB11D12966C9363
:1011D0009F5F90870895FC012081622B60830895B2
:1011E0006095FC012081622360830895FC01808169
:1011F0000895FC01208530E0329680E090E0737025
:10120000821793073CF4419150E06417750721F071
:101210000196F6CF80E0089581E00895EAE7F1E0D5
:10122000108211820895CF93DF9320917B012436A1
:10123000C1F030917A01822F90E0830F911D64E616
:1012400070E00E94BD142F5F20937B0129E0289F4E
:10125000E001299FD00D1124C458DE4FCE018EDF4E
:1012600002C0C0E0D0E0CE01DF91CF91089540915F
:101270007B014423B1F020917A01822F90E059E064
:10128000259F90011124019664E670E00E94BD1430
:1012900080937A01415040937B01C90184589E4F4D
:1012A000089580E090E0089581E090917B01911194
:1012B00080E0089590917B0184E6891B0895292F91
:1012C000332723303105C9F064F42130310581F032
:1012D0002230310509F042C08BE490E02CE431E08B
:1012E00041C021323105F1F02232310549F136C0D9
:1012F00082E190E027E931E035C0992781309105FE
:1013000041F08230910541F0892B41F5E8E4F1E0AC
:1013100005C0E4E2F1E002C0E4EEF0E0849190E088
:101320009F0120C0662339F06130C1F489E090E06C
:1013300027E731E017C089E090E02EE531E012C0E8
:10134000662339F0613051F485E190E029EA31E01B
:1013500009C08FE390E020EF31E004C080E090E02E
:1013600020E030E0FA01318320830895CF93DF93AA
:10137000C7E1D7E020E031E0509851985298539857
:101380005498559856985798389839983A983B9861
:101390003C983D983E98822F90E0FC013197EE30CA
:1013A000F10520F4E45BFF4F0C94D014509A1BC05D
:1013B000519A19C0529A17C0539A15C0549A13C023
:1013C000559A11C0569A0FC0579A0DC0389A0BC043
:1013D000399A09C03A9A07C03B9A05C03C9A03C0A3
:1013E0003D9A01C03E9A589A599A5A9A5B9A5C9AC9
:1013F0005D9A5E9A5F9A409A419A429A439A449AB9
:10140000459A469AFC013197EE30F10520F4E65AF0
:10141000FF4F0C94D01458981BC0599819C05A9873
:1014200017C05B9815C05C9813C05D9811C05E989A
:101430000FC05F980DC040980BC0419809C04298FA
:1014400007C0439805C0449803C0459801C046981A
:101450008AE68A95F1F700C083B18170832790E016
:10146000A0E0B0E0199B82601A9B84601B9B88609F
:101470001C9B80611D9B80621E9B80641F9B8068FB
:1014800089939993A993B9932F5F2F3009F074CF63
:10149000DF91CF9108950F931F93CF93DF9381D363
:1014A0002098219822982398249825982698279860
:1014B000289A299A2A9A2B9A2C9A2D9A2E9A2F9A00
:1014C000E6E5F8E0859194919093BD078093BC0781
:1014D0000AEB17E0F80191838083C8EBD7E019820B
:1014E00018829093BF078093BE070AD397DE83E5E7
:1014F00097E066D21092B707F801808191819983B5
:101500008883DF91CF911F910F9108952FDFE7E13D
:10151000F7E081919191A191B191892B8A2B8B2B2D
:1015200031F487E0E335F807A1F780E0089581E022
:1015300008958F929F92BF92CF92DF92EF92FF9287
:101540000F931F93CF93DF937C0183E597E038D20D
:101550001092B7078091BA079091BB079093B90793
:101560008093B807A1DE81110BC081DEEC0188E019
:10157000F70111928A95E9F7209709F093C1A4C168
:10158000F5DE87E1C82E87E0D82E10E0C0E0D0E07D
:10159000F60180819181A281B3810C2E04C0B695A1
:1015A000A795979587950A94D2F780FF15C0812F4C
:1015B0009C2FC3D2811116C0812F9C2FC8D28823A3
:1015C00089F0612F7C2F83E597E009D281110AC051
:1015D00081E08093B70710C0812F9C2FA4D2812F68
:1015E0009C2FC6D22196C730D10591F61F5F24E00B
:1015F000C20ED11C1F3051F68091B7078111B5CFB3
:1016000012DEEC01892B09F4B0CF83E597E057D2C5
:101610008C01892B79F0C090B807D090B907CE0122
:10162000E5DD682F70E0A601C80175D183E597E07C
:1016300010D2EECF83E597E042D28C01892BD1F016
:10164000F8018281823091F4C801029625D3FC0111
:10165000208121110BC0818192819093B9078093E1
:10166000B807C80153D1DD24D39405C083E597E0C2
:10167000F0D1E3CFD12C8091B8079091B907209198
:10168000BE073091BF078217930749F4D110BDCF31
:1016900083E597E014D28C01C12CD12C31C09093FA
:1016A000BF078093BE0783E597E009D28C01892BA1
:1016B00069F3F8018281843029F08081918128D2F8
:1016C000C80124D183E597E0C4D1F0CFF80182812D
:1016D000843091F4C801029600D3FC01808191818D
:1016E000C82AD92AF8016381CE017ADDF801648124
:1016F000CE0176DDC8010AD183E597E0AAD18C013D
:101700000115110519F76C2DCE0165DDCD2809F005
:101710007CCF83E597E0D3D18C01B12C0115110565
:1017200009F44AC0F8018281813009F040C0CE013D
:101730005DDD982EC8010296C5D26C0183E597E065
:1017400061D18230A0F1892D90E0F801448123819C
:1017500030E0242B2095309528233923F601408151
:10176000242B2817390719F16181728180EC97E0E9
:1017700040DD882339F0F80180819181C9D1C80109
:10178000C5D015C0F60161817281CE011ADDF80164
:101790006381CE0125DDF8016481CE0121DDF601F2
:1017A0006081CE0118DDC801B1D0BB24B39483E5BC
:1017B00097E04FD18C01B2CF83E597E080D18C01C7
:1017C000892B09F4D2CEF801B11065C08281823034
:1017D00009F446C08330C9F0813009F05FC0C80108
:1017E000029670D26C01FC0161817281CE01E9DC4C
:1017F000F8016381CE01F4DCF8016481CE01F0DCF4
:10180000F6016081CE01E7DC49C0C80102964FD2E3
:101810006C01F801808191817BD100E010E0F6013C
:10182000808190E0081719070CF038C043DD823042
:10183000A8F1F9DCEC01602FC60184D24C01FC0157
:1018400061817281CE01BDDCF4016081CE01C3DC17
:10185000EADCEC01F4016081BEDC0F5F1F4FDFCFDB
:10186000C801029619D2FC0120812130B9F481818E
:1018700092812091BA073091BB072817390721F4CC
:101880008091BC079091BD079093BB078093BA07E6
:10189000C8013CD0F801808191813AD183E597E07D
:1018A000D8D08DCF8091B707B701811107C0CE0185
:1018B00080DC60EC77E0CE0167DC06C0CE016CDC3A
:1018C00060EC77E0CE0174DC88E0DF91CF911F916E
:1018D0000F91FF90EF90DF90CF90BF909F908F90EF
:1018E0000895FC0171836083128216821582089527
:1018F000FC0180818F3F39F091E081818F3F09F4B5
:1019000090E0892F01C080E0817008952FEFFC01E5
:10191000208321830895CF92DF92EF92FF920F935D
:101920001F93CF93DF93EC01E62E1A829981888171
:101930002FE0929F800D1124BA0193E0899F600DE2
:10194000711D112443E050E080E095E00E94ED1409
:1019500080910005882359F100E010E0C12CD12CC2
:10196000F12C8091000590E00817190784F4602F8E
:1019700080E095E0BDD16E2D01964FD190E0C81664
:10198000D90614F46C01F02E0F5F1F4FEACF6F2DB4
:1019900080E095E0ADD1BE016E5F7F4FDF91CF91CA
:1019A0001F910F91FF90EF90DF90CF906DC1DF916D
:1019B000CF911F910F91FF90EF90DF90CF900895FE
:1019C000CF93DF93EC0142E650E06FEF70E00E94AE
:1019D0000C15CE59DF4F1882DF91CF910895FC018D
:1019E000EE59FF4F20812F3058F431E0320F308311
:1019F00037E0239F800D911D112473DF81E008954E
:101A000080E00895DF92EF92FF920F931F93CF93A0
:101A1000DF938C01C0E0D0E07C0182E6E80EF11C8F
:101A200087E0D82EF7018081C81750F4C801DC9EEA
:101A3000800D911D11245CDF8111DF5FCF5FF2CF3C
:101A40008D2FDF91CF911F910F91FF90EF90DF903D
:101A50000895BF92CF92DF92EF92FF920F931F9360
:101A6000CF93DF938C017C0183E6E80EF11C6801C3
:101A7000E2E6CE0ED11C87E0B82EF7019081F60188
:101A80008081981778F49F5FF7019083E801B99EF1
:101A9000C00DD11D1124CE012BDF882371F32097B7
:101AA00061F302C0C0E0D0E0CE01DF91CF911F9181
:101AB0000F91FF90EF90DF90CF90BF9008950F931C
:101AC0001F93CF93DF93EC018C010D591F4FF80149
:101AD00010820EDF882371F0F80180819E0147E0BB
:101AE000849F200D311D1124C901DF91CF911F91D9
:101AF0000F910895CE01DF91CF911F910F91A9CF42
:101B000089E6E3E0F5E0DF011D928A95E9F70895A3
:101B10002FE0929F800D1124E82FF0E0ED5FFA4F47
:101B200081E0808308952FE0929F800D1124E82F9B
:101B3000F0E0ED5FFA4F108208952FE0929F800D44
:101B40001124E82FF0E0ED5FFA4F808108952FE037
:101B5000929F800D1124E82FF0E0E459FA4F808124
:101B6000883020F48F5F808380E0089581E00895BD
:101B70002FE0929F800D1124E82FF0E0E459FA4FF6
:101B8000108208959091D505E091D605E90F9F5FE9
:101B90009093D505F0E0E952FA4F808380E090E021
:101BA00008958BE591E09093D9078093D807109220
:101BB000D6051092D505089581E09091D505911133
:101BC00080E008959091D505992329F12091D605BB
:101BD00030E0F901E952FA4F80812F5F3F4F332700
:101BE0002093D6058C3599F4F901E952FA4F80819A
:101BF0008E3641F0843721F0823629F488E003C024
:101C000089E001C08AE02F5F3F4F2093D6059150B5
:101C10009093D505089580E00895CF93DF93FC015C
:101C2000362F32953F702081422F4F70922F929520
:101C30009F70C32FC923D0E0C759DE4FA62FA4231E
:101C4000B0E0A759BE4F28818C91820FA32FB0E03E
:101C5000292F30E0209530952A233B236F7070E0C8
:101C600050E04095509564237523262B372BE18156
:101C7000EF70F0E02E233F23F901E759FE4F9081EA
:101C8000890FDF91CF910895FC0195E0DB01019070
:101C90000D929A95E1F70895FC016381748143E008
:101CA00050E089EE96E099D689EE96E00895FC0121
:101CB0006381748143E050E086EE96E08ED686EE36
:101CC00096E00895FC016381748143E050E083EE67
:101CD00096E083D683EE96E00895FC0163817481DB
:101CE00042E050E081EE96E078D681EE96E00895ED
:101CF0000F931F93CF93DF9325E0629FE0011124A0
:101D0000FC01618172816C0F7D1F2091DF06309193
:101D1000E0066217730779F08C0145E050E08AED28
:101D200096E05BD6F80161817281C60FD71FD09310
:101D3000E006C093DF068AED96E0DF91CF911F9118
:101D40000F910895FC01818192819C0143E0649F81
:101D5000200D311D1124B90143E050E087ED96E0DC
:101D60003CD687ED96E008951F93CF93DF93CDB7D0
:101D7000DEB7AA970FB6F894DEBF0FBECDBFEEEC6C
:101D8000F7E088E08E0F9091F10091938E13FBCFD6
:101D90008091CE079091CF07492F50E04A305105EE
:101DA00008F015C1FA01E859FF4FFAC5803881F0F3
:101DB000823809F00CC18091D20787708093E900C6
:101DC0008091EB0085FB882780F91092E90006C01E
:101DD0008091C9079091CA07911182609091E800A3
:101DE000977F9093E8008093F1001092F100C1C0BA
:101DF000282F2D7F09F0EBC0882319F0823061F085
:101E0000D7C08091D007813009F0D2C0933009F05B
:101E100080E08093CA072BC08091D007811127C032
:101E20008091D207877009F4C3C08093E9002091A4
:101E3000EB0020FFBDC0933021F48091EB00806265
:101E400014C09091EB0090619093EB0021E030E0A2
:101E5000A90102C0440F551F8A95E2F74093EA009A
:101E60001092EA008091EB0088608093EB00109262
:101E7000E9008091E800877F7FC08111A8C01091A0
:101E8000D0078091E800877F8093E800E4D08091BC
:101E9000E80080FD05C08091CD078111F8CF88C092
:101EA000812F8F7711F492E001C093E09093CD07DA
:101EB00080688093E3007CC08058823008F087C03F
:101EC0008091D0079091D1078C3D53E0950779F52B
:101ED00083E08A838AE289833FB7F894DE01139610
:101EE00090E02EE041E2E22FF0E040935700E491D1
:101EF00090FF03C0E295EF702F5FEF7080E38E0FCD
:101F00008A3310F0E95C01C0E82FF0E0ED93FD9317
:101F10009F5F943141F73FBF8091E800877F8093B6
:101F2000E8006AE270E0CE01019615D111C0AE0161
:101F30004F5F5F4F6091D207C2D9BC01892BC1F1BD
:101F40009091E800977F9093E80089819A815FD112
:101F50008091E8008B778093E8002AC08038B9F53B
:101F60008091E800877F8093E8008091CB07809381
:101F7000F1008091E8008E778093E8006CD018C063
:101F8000811125C09091D007923090F48091E800A3
:101F9000877F8093E8009093CB075DD08091CB073B
:101FA000811102C083E001C084E08093CD0761D835
:101FB0008091E80083FF0DC08091EB0080628093E8
:101FC000EB008091E800877F8093E80002C071D821
:101FD000EFCFAA960FB6F894DEBF0FBECDBFDF914C
:101FE000CF911F910895AC0128E030E080E02417E4
:101FF000350720F48F5F220F331FF9CF8295807F42
:1020000008958093E900EBEEF0E0808181608083A9
:10201000EDEEF0E010826093EC0040838091EE00E2
:10202000881F8827881F08951092F40080E080930D
:10203000E9001092F0001092E8009091ED009D7F71
:102040009093ED009091EB009E7F9093EB008F5F5B
:10205000873069F708958091CE0787FF11C080917E
:10206000E80082FD05C08091CD078111F8CF11C035
:102070008091E8008B770BC08091CD07882349F0D1
:102080008091E80080FFF8CF8091E8008E77809300
:10209000E800089595E62091EC00822F817020FFE2
:1020A00005C08091E80080FF05C01DC02091E800B8
:1020B00022FD20C08091CD078823B9F08091CD0703
:1020C0008530A9F08091EB0085FD13C08091E1007F
:1020D00082FFE1CF8091E1008B7F8093E1009150FE
:1020E000D1F684E0089580E0089582E0089583E0C9
:1020F000089581E00895EF92FF920F931F93CF937D
:10210000DF938C01EB017A01C5DF81111DC020979F
:10211000D1F08091E80085FD0EC08091E8008E77B7
:102120008093E800E114F10479F3F7010995813017
:1021300059F785E009C0F80180818093F10021976B
:102140000F5F1F4FE4CF80E0DF91CF911F910F9180
:10215000FF90EF9008952091D4073091D50726176E
:10216000370748F06115710539F42091E8002E77A2
:102170002093E80001C0B90130E06115710581F1DB
:102180002091E80023FD3DC02091E80022FD33C0EE
:102190002091CD072223B9F12091CD072530A9F157
:1021A0002091E80020FFE9CF2091F2003091F30068
:1021B000FC01CF016115710549F0283038F4819197
:1021C0008093F100615071092F5FF3CF31E0283027
:1021D00009F030E02091E8002E772093E800CDCF81
:1021E0003111CECF08C08091CD07882361F0809156
:1021F000CD07853051F08091E80082FFF4CF80E078
:10220000089581E0089582E0089583E00895209183
:10221000D4073091D5072617370748F061157105A7
:1022200039F42091E8002E772093E80001C0B9012D
:1022300030E06115710589F12091E80023FD3EC071
:102240002091E80022FD34C02091CD072223C1F166
:102250002091CD072530B1F12091E80020FFE9CF92
:102260002091F2003091F300FC01CF01611571055E
:1022700051F0283040F484918093F100615071094D
:102280002F5F3196F2CF31E0283009F030E0209115
:10229000E8002E772093E800CCCF3111CDCF08C0D5
:1022A0008091CD07882361F08091CD07853051F072
:1022B0008091E80082FFF4CF80E0089581E00895E6
:1022C00082E0089583E008956115710529F4209155
:1022D000E8002B772093E8006115710541F120910A
:1022E000E80023FD2AC02091CD07222341F120914F
:1022F000CD07253031F12091E80022FFEDCF20916C
:10230000F2003091F300232B11F301962091F1009C
:10231000FC01319720836150710989F7D8CF8091F2
:10232000CD07882361F08091CD07853051F08091F1
:10233000E80080FFF4CF80E0089581E0089582E016
:10234000089583E00895CF93DF9346D04DD0109247
:10235000CD071092CB071092CA071092C907E8ED7B
:10236000F0E08081982F9F77908380688083A7ED2D
:10237000B0E08C9181608C9380818F7D8083A0EE12
:10238000B0E08C918B7F8C938C918E7F8C93C1EE7F
:10239000D0E088818E7F8883A2EEB0E08C9181604E
:1023A0008C938881877F88838C9188608C938081CF
:1023B00081608083DF91CF910895E7EDF0E0808127
:1023C00080688083C0DFE8EDF0E0808180618083F9
:1023D00081E08093CC070895E8EDF0E080818C7F68
:1023E00080831092E20008951092DA001092E100CA
:1023F00008951F920F920FB60F9211240BB60F92F1
:102400002F933F934F935F936F937F938F939F93FC
:10241000AF93BF93EF93FF938091DA0080FF17C0D3
:102420008091D80080FF13C08091DA008E7F809366
:10243000DA008091D90080FF06C081E08093CD074B
:102440000E94350804C01092CD070E943708809181
:10245000E10080FF1CC08091E20080FF18C08091E5
:10246000E1008E7F8093E1008091E2008E7F809377
:10247000E2008091E20080618093E2008091D800C8
:1024800080628093D80085E08093CD076FD08091E3
:10249000E10084FF22C08091E20084FF1EC0809191
:1024A000D8008F7D8093D8008091E1008F7E80934B
:1024B000E1008091E2008F7E8093E2008091E20053
:1024C00081608093E2008091CB07811102C083E09C
:1024D00001C084E08093CD0749D08091E10083FF63
:1024E00023C08091E20083FF1FC08091E100877FBD
:1024F0008093E10082E08093CD071092CB0780911A
:10250000E1008E7F8093E1008091E2008E7F8093D6
:10251000E2008091E20080618093E20085DD42E08C
:1025200060E080E06EDD22D08091E10082FF0BC090
:102530008091E20082FF07C08091E1008B7F809351
:10254000E1000E946108FF91EF91BF91AF919F91CF
:102550008F917F916F915F914F913F912F910F904C
:102560000BBE0F900FBE0F901F9018950895CF933C
:102570008091CD07882359F0C091E900C77010926F
:10258000E9008091E80083FDEFDBC093E900CF9183
:1025900008957F928F929F92AF92BF92CF92DF92D7
:1025A000EF92FF920F931F93CF93DF9300D01F9270
:1025B000CDB7DEB77C01CDB6DEB68091E80083FFF3
:1025C000F4C0F701808190E02091D2073091D307C9
:1025D0002817390709F0E9C08091CF07833009F443
:1025E00096C030F4813071F0823009F4C6C0DDC08D
:1025F0008A3009F4ABC08B3009F496C0893009F0F9
:10260000D4C050C08091CE07813A09F0CEC0ADB69B
:10261000BEB68091E800877F8093E8001A82198215
:102620008091D0071091D1078B83F7018781482FC4
:1026300050E08DB79EB7841B950B0FB6F8949EBFE4
:102640000FBE8DBFEDB7FEB731964F0160E070E071
:10265000CF01E2D14FEF410F8E010F5F1F4F940169
:10266000BE016D5F7F4FC7010E947808F701858129
:102670009681009721F0478150E0B401C4D11092B7
:10268000E90069817A81F7018581968164DD809115
:10269000E8008B778093E8000FB6F894BEBE0FBEBB
:1026A000ADBE83C08091CE07813209F07EC080919B
:1026B000E800877F8093E800A090D407B090D5070A
:1026C0007090D0071091D1078DB79EB78A199B09DA
:1026D0000FB6F8949EBF0FBE8DBFEDB7FEB7319613
:1026E0004F01B501CF01F0DD4FEF410F850194019E
:1026F000672DC7010E9492088091E8008E77809331
:10270000E8000FB6F894DEBE0FBECDBE4EC080917D
:10271000CE07813A09F049C08091E800877F809315
:10272000E800F701808539C08091CE078132E9F554
:102730008091E800877F8093E8009091D00781E046
:10274000911101C080E0F70180872EC08091CE07F3
:10275000813259F58091E800877F8093E80080916D
:10276000D0079091D107882736E0969587953A95BE
:10277000E1F7F7019287818717C08091CE07813AF0
:10278000A1F48091E800877F8093E800F7018185BC
:10279000928596958795969587958093F10080917F
:1027A000E8008E778093E80056DC0FB6F894DEBE22
:1027B0000FBECDBE0F900F900F90DF91CF911F9164
:1027C0000F91FF90EF90DF90CF90BF90AF909F90D0
:1027D0008F907F9008951F93CF93DF93EC01FC01BE
:1027E000389685E0DF011D928A95E9F781E08887B8
:1027F00084EF91E09A8789878C81811102C012E071
:1028000001C016E08A819B81EEDB482F412B61ECF1
:102810008981DF91CF911F91F4CB4F925F926F929C
:102820007F928F929F92AF92BF92CF92DF92EF9260
:10283000FF920F931F93CF93DF9300D01F92CDB7DA
:10284000DEB77C01ADB6BEB68091CD07843009F00D
:102850007BC0F70181818093E9008091E80085FFCA
:1028600073C08DB69EB6478150E08DB79EB7841B6E
:10287000950B0FB6F8949EBF0FBE8DBFEDB7FEB798
:1028800031966F011B821A82198260E070E0CF01DD
:10289000C3D08E010F5F1F4F960140E0BE016D5FF8
:1028A0007F4FC7010E947808482EF70181859285E5
:1028B000892B51F091E080E023853485232B09F0AA
:1028C00090E0092F182F02C000E010E0F7016580AA
:1028D00076806114710489F049815A81B301C6017F
:1028E00085D055245394892B09F4512CF701478145
:1028F00050E0B601C30187D001C0512C89819A8173
:10290000892BE9F0411004C0511002C0012BB9F02D
:10291000F701818592859487838781818093E9007F
:102920008B8181118093F10069817A8140E050E0D0
:10293000C601E1DB8091E8008E778093E8000FB656
:10294000F8949EBE0FBE8DBE0FB6F894BEBE0FBEED
:10295000ADBE0F900F900F90DF91CF911F910F910F
:10296000FF90EF90DF90CF90BF90AF909F908F90AF
:102970007F906F905F904F90089597FB072E16F40D
:10298000009406D077FD08D014D007FC05D03EF4A3
:10299000909581959F4F0895709561957F4F08950B
:1029A000EE0FFF1F0024001C0BBE0790F691E02DD8
:1029B0000994AA1BBB1B51E107C0AA1FBB1FA61786
:1029C000B70710F0A61BB70B881F991F5A95A9F7D8
:1029D00080959095BC01CD010895FB01DC0102C0FA
:1029E00005900D9241505040D8F70895FB01DC014D
:1029F00004C08D910190801921F441505040C8F7D6
:102A0000881B990B0895FB01DC0102C001900D9217
:102A100041505040D8F70895DC0101C06D934150FA
:0A2A20005040E0F70895F894FFCF4E
:102A2A0030313233343536373839414243444546FA
:102A3A0030313233343536373839414243444546EA
:102A4A0030313233343536373839414243444546DA
:102A5A0030313233343536373839414243444546CA
:102A6A00000102200000F50620000000000000011D
:102A7A00080000ED06080000000000000000020047
:102A8A00000000C20D000000000001010201020264
:0A2A9A00030102020302030304001B
:00000001FF
